{
  "_format": "hh-sol-artifact-1",
  "contractName": "AcidToken",
  "sourceName": "contracts/AcidToken.sol",
  "abi": [
    {
      "inputs": [],
      "stateMutability": "nonpayable",
      "type": "constructor"
    },
    {
      "anonymous": false,
      "inputs": [
        {
          "indexed": true,
          "internalType": "address",
          "name": "owner",
          "type": "address"
        },
        {
          "indexed": true,
          "internalType": "address",
          "name": "spender",
          "type": "address"
        },
        {
          "indexed": false,
          "internalType": "uint256",
          "name": "value",
          "type": "uint256"
        }
      ],
      "name": "Approval",
      "type": "event"
    },
    {
      "anonymous": false,
      "inputs": [
        {
          "indexed": true,
          "internalType": "address",
          "name": "from",
          "type": "address"
        },
        {
          "indexed": true,
          "internalType": "address",
          "name": "to",
          "type": "address"
        },
        {
          "indexed": false,
          "internalType": "uint256",
          "name": "value",
          "type": "uint256"
        }
      ],
      "name": "Transfer",
      "type": "event"
    },
    {
      "inputs": [
        {
          "internalType": "address",
          "name": "",
          "type": "address"
        }
      ],
      "name": "addressToName",
      "outputs": [
        {
          "internalType": "string",
          "name": "",
          "type": "string"
        }
      ],
      "stateMutability": "view",
      "type": "function"
    },
    {
      "inputs": [
        {
          "internalType": "address",
          "name": "owner",
          "type": "address"
        },
        {
          "internalType": "address",
          "name": "spender",
          "type": "address"
        }
      ],
      "name": "allowance",
      "outputs": [
        {
          "internalType": "uint256",
          "name": "",
          "type": "uint256"
        }
      ],
      "stateMutability": "view",
      "type": "function"
    },
    {
      "inputs": [
        {
          "internalType": "address",
          "name": "spender",
          "type": "address"
        },
        {
          "internalType": "uint256",
          "name": "amount",
          "type": "uint256"
        }
      ],
      "name": "approve",
      "outputs": [
        {
          "internalType": "bool",
          "name": "",
          "type": "bool"
        }
      ],
      "stateMutability": "nonpayable",
      "type": "function"
    },
    {
      "inputs": [
        {
          "internalType": "address",
          "name": "account",
          "type": "address"
        }
      ],
      "name": "balanceOf",
      "outputs": [
        {
          "internalType": "uint256",
          "name": "",
          "type": "uint256"
        }
      ],
      "stateMutability": "view",
      "type": "function"
    },
    {
      "inputs": [],
      "name": "decimals",
      "outputs": [
        {
          "internalType": "uint8",
          "name": "",
          "type": "uint8"
        }
      ],
      "stateMutability": "view",
      "type": "function"
    },
    {
      "inputs": [
        {
          "internalType": "address",
          "name": "spender",
          "type": "address"
        },
        {
          "internalType": "uint256",
          "name": "subtractedValue",
          "type": "uint256"
        }
      ],
      "name": "decreaseAllowance",
      "outputs": [
        {
          "internalType": "bool",
          "name": "",
          "type": "bool"
        }
      ],
      "stateMutability": "nonpayable",
      "type": "function"
    },
    {
      "inputs": [],
      "name": "getPlayersLength",
      "outputs": [
        {
          "internalType": "uint256",
          "name": "",
          "type": "uint256"
        }
      ],
      "stateMutability": "view",
      "type": "function"
    },
    {
      "inputs": [
        {
          "internalType": "address",
          "name": "spender",
          "type": "address"
        },
        {
          "internalType": "uint256",
          "name": "addedValue",
          "type": "uint256"
        }
      ],
      "name": "increaseAllowance",
      "outputs": [
        {
          "internalType": "bool",
          "name": "",
          "type": "bool"
        }
      ],
      "stateMutability": "nonpayable",
      "type": "function"
    },
    {
      "inputs": [],
      "name": "name",
      "outputs": [
        {
          "internalType": "string",
          "name": "",
          "type": "string"
        }
      ],
      "stateMutability": "view",
      "type": "function"
    },
    {
      "inputs": [
        {
          "internalType": "uint256",
          "name": "",
          "type": "uint256"
        }
      ],
      "name": "players",
      "outputs": [
        {
          "internalType": "address",
          "name": "",
          "type": "address"
        }
      ],
      "stateMutability": "view",
      "type": "function"
    },
    {
      "inputs": [
        {
          "internalType": "string",
          "name": "_name",
          "type": "string"
        }
      ],
      "name": "registerName",
      "outputs": [],
      "stateMutability": "nonpayable",
      "type": "function"
    },
    {
      "inputs": [],
      "name": "symbol",
      "outputs": [
        {
          "internalType": "string",
          "name": "",
          "type": "string"
        }
      ],
      "stateMutability": "view",
      "type": "function"
    },
    {
      "inputs": [],
      "name": "totalSupply",
      "outputs": [
        {
          "internalType": "uint256",
          "name": "",
          "type": "uint256"
        }
      ],
      "stateMutability": "view",
      "type": "function"
    },
    {
      "inputs": [
        {
          "internalType": "address",
          "name": "to",
          "type": "address"
        },
        {
          "internalType": "uint256",
          "name": "amount",
          "type": "uint256"
        }
      ],
      "name": "transfer",
      "outputs": [
        {
          "internalType": "bool",
          "name": "",
          "type": "bool"
        }
      ],
      "stateMutability": "nonpayable",
      "type": "function"
    },
    {
      "inputs": [
        {
          "internalType": "address",
          "name": "from",
          "type": "address"
        },
        {
          "internalType": "address",
          "name": "to",
          "type": "address"
        },
        {
          "internalType": "uint256",
          "name": "amount",
          "type": "uint256"
        }
      ],
      "name": "transferFrom",
      "outputs": [
        {
          "internalType": "bool",
          "name": "",
          "type": "bool"
        }
      ],
      "stateMutability": "nonpayable",
      "type": "function"
    }
  ],
  "bytecode": "0x60806040523480156200001157600080fd5b506040518060400160405280600a81526020017f4163696420546f6b656e000000000000000000000000000000000000000000008152506040518060400160405280600481526020017f414349440000000000000000000000000000000000000000000000000000000081525081600390805190602001906200009692919062000259565b508060049080519060200190620000af92919062000259565b505050620000d0336b033b2e3c9fd0803ce8000000620000d660201b60201c565b620004b5565b600073ffffffffffffffffffffffffffffffffffffffff168273ffffffffffffffffffffffffffffffffffffffff16141562000149576040517f08c379a0000000000000000000000000000000000000000000000000000000008152600401620001409062000341565b60405180910390fd5b6200015d600083836200024f60201b60201c565b806002600082825462000171919062000391565b92505081905550806000808473ffffffffffffffffffffffffffffffffffffffff1673ffffffffffffffffffffffffffffffffffffffff1681526020019081526020016000206000828254620001c8919062000391565b925050819055508173ffffffffffffffffffffffffffffffffffffffff16600073ffffffffffffffffffffffffffffffffffffffff167fddf252ad1be2c89b69c2b068fc378daa952ba7f163c4a11628f55a4df523b3ef836040516200022f919062000363565b60405180910390a36200024b600083836200025460201b60201c565b5050565b505050565b505050565b8280546200026790620003f8565b90600052602060002090601f0160209004810192826200028b5760008555620002d7565b82601f10620002a657805160ff1916838001178555620002d7565b82800160010185558215620002d7579182015b82811115620002d6578251825591602001919060010190620002b9565b5b509050620002e69190620002ea565b5090565b5b8082111562000305576000816000905550600101620002eb565b5090565b600062000318601f8362000380565b915062000325826200048c565b602082019050919050565b6200033b81620003ee565b82525050565b600060208201905081810360008301526200035c8162000309565b9050919050565b60006020820190506200037a600083018462000330565b92915050565b600082825260208201905092915050565b60006200039e82620003ee565b9150620003ab83620003ee565b9250827fffffffffffffffffffffffffffffffffffffffffffffffffffffffffffffffff03821115620003e357620003e26200042e565b5b828201905092915050565b6000819050919050565b600060028204905060018216806200041157607f821691505b602082108114156200042857620004276200045d565b5b50919050565b7f4e487b7100000000000000000000000000000000000000000000000000000000600052601160045260246000fd5b7f4e487b7100000000000000000000000000000000000000000000000000000000600052602260045260246000fd5b7f45524332303a206d696e7420746f20746865207a65726f206164647265737300600082015250565b6117ed80620004c56000396000f3fe608060405234801561001057600080fd5b50600436106100f55760003560e01c806370a0823111610097578063cd61386d11610066578063cd61386d146102ae578063dd62ed3e146102cc578063e2a04b62146102fc578063f71d96cb1461032c576100f5565b806370a082311461020057806395d89b4114610230578063a457c2d71461024e578063a9059cbb1461027e576100f5565b806318160ddd116100d357806318160ddd1461016457806323b872dd14610182578063313ce567146101b257806339509351146101d0576100f5565b806306fdde03146100fa5780630830602b14610118578063095ea7b314610134575b600080fd5b61010261035c565b60405161010f91906111ee565b60405180910390f35b610132600480360381019061012d9190610fe4565b6103ee565b005b61014e60048036038101906101499190610fa8565b610552565b60405161015b91906111d3565b60405180910390f35b61016c610575565b60405161017991906112f0565b60405180910390f35b61019c60048036038101906101979190610f59565b61057f565b6040516101a991906111d3565b60405180910390f35b6101ba6105ae565b6040516101c7919061130b565b60405180910390f35b6101ea60048036038101906101e59190610fa8565b6105b7565b6040516101f791906111d3565b60405180910390f35b61021a60048036038101906102159190610ef4565b6105ee565b60405161022791906112f0565b60405180910390f35b610238610636565b60405161024591906111ee565b60405180910390f35b61026860048036038101906102639190610fa8565b6106c8565b60405161027591906111d3565b60405180910390f35b61029860048036038101906102939190610fa8565b61073f565b6040516102a591906111d3565b60405180910390f35b6102b6610762565b6040516102c391906112f0565b60405180910390f35b6102e660048036038101906102e19190610f1d565b61076f565b6040516102f391906112f0565b60405180910390f35b61031660048036038101906103119190610ef4565b6107f6565b60405161032391906111ee565b60405180910390f35b61034660048036038101906103419190611025565b610896565b60405161035391906111b8565b60405180910390f35b60606003805461036b90611485565b80601f016020809104026020016040519081016040528092919081815260200182805461039790611485565b80156103e45780601f106103b9576101008083540402835291602001916103e4565b820191906000526020600020905b8154815290600101906020018083116103c757829003601f168201915b5050505050905090565b80600560003373ffffffffffffffffffffffffffffffffffffffff1673ffffffffffffffffffffffffffffffffffffffff1681526020019081526020016000209080519060200190610441929190610dbf565b50600660003373ffffffffffffffffffffffffffffffffffffffff1673ffffffffffffffffffffffffffffffffffffffff16815260200190815260200160002060009054906101000a900460ff1661054f576007339080600181540180825580915050600190039060005260206000200160009091909190916101000a81548173ffffffffffffffffffffffffffffffffffffffff021916908373ffffffffffffffffffffffffffffffffffffffff1602179055506001600660003373ffffffffffffffffffffffffffffffffffffffff1673ffffffffffffffffffffffffffffffffffffffff16815260200190815260200160002060006101000a81548160ff0219169083151502179055505b50565b60008061055d6108d5565b905061056a8185856108dd565b600191505092915050565b6000600254905090565b60008061058a6108d5565b9050610597858285610aa8565b6105a2858585610b34565b60019150509392505050565b60006012905090565b6000806105c26108d5565b90506105e38185856105d4858961076f565b6105de9190611398565b6108dd565b600191505092915050565b60008060008373ffffffffffffffffffffffffffffffffffffffff1673ffffffffffffffffffffffffffffffffffffffff168152602001908152602001600020549050919050565b60606004805461064590611485565b80601f016020809104026020016040519081016040528092919081815260200182805461067190611485565b80156106be5780601f10610693576101008083540402835291602001916106be565b820191906000526020600020905b8154815290600101906020018083116106a157829003601f168201915b5050505050905090565b6000806106d36108d5565b905060006106e1828661076f565b905083811015610726576040517f08c379a000000000000000000000000000000000000000000000000000000000815260040161071d906112d0565b60405180910390fd5b61073382868684036108dd565b60019250505092915050565b60008061074a6108d5565b9050610757818585610b34565b600191505092915050565b6000600780549050905090565b6000600160008473ffffffffffffffffffffffffffffffffffffffff1673ffffffffffffffffffffffffffffffffffffffff16815260200190815260200160002060008373ffffffffffffffffffffffffffffffffffffffff1673ffffffffffffffffffffffffffffffffffffffff16815260200190815260200160002054905092915050565b6005602052806000526040600020600091509050805461081590611485565b80601f016020809104026020016040519081016040528092919081815260200182805461084190611485565b801561088e5780601f106108635761010080835404028352916020019161088e565b820191906000526020600020905b81548152906001019060200180831161087157829003601f168201915b505050505081565b600781815481106108a657600080fd5b906000526020600020016000915054906101000a900473ffffffffffffffffffffffffffffffffffffffff1681565b600033905090565b600073ffffffffffffffffffffffffffffffffffffffff168373ffffffffffffffffffffffffffffffffffffffff16141561094d576040517f08c379a0000000000000000000000000000000000000000000000000000000008152600401610944906112b0565b60405180910390fd5b600073ffffffffffffffffffffffffffffffffffffffff168273ffffffffffffffffffffffffffffffffffffffff1614156109bd576040517f08c379a00000000000000000000000000000000000000000000000000000000081526004016109b490611230565b60405180910390fd5b80600160008573ffffffffffffffffffffffffffffffffffffffff1673ffffffffffffffffffffffffffffffffffffffff16815260200190815260200160002060008473ffffffffffffffffffffffffffffffffffffffff1673ffffffffffffffffffffffffffffffffffffffff168152602001908152602001600020819055508173ffffffffffffffffffffffffffffffffffffffff168373ffffffffffffffffffffffffffffffffffffffff167f8c5be1e5ebec7d5bd14f71427d1e84f3dd0314c0f7b2291e5b200ac8c7c3b92583604051610a9b91906112f0565b60405180910390a3505050565b6000610ab4848461076f565b90507fffffffffffffffffffffffffffffffffffffffffffffffffffffffffffffffff8114610b2e5781811015610b20576040517f08c379a0000000000000000000000000000000000000000000000000000000008152600401610b1790611250565b60405180910390fd5b610b2d84848484036108dd565b5b50505050565b600073ffffffffffffffffffffffffffffffffffffffff168373ffffffffffffffffffffffffffffffffffffffff161415610ba4576040517f08c379a0000000000000000000000000000000000000000000000000000000008152600401610b9b90611290565b60405180910390fd5b600073ffffffffffffffffffffffffffffffffffffffff168273ffffffffffffffffffffffffffffffffffffffff161415610c14576040517f08c379a0000000000000000000000000000000000000000000000000000000008152600401610c0b90611210565b60405180910390fd5b610c1f838383610db5565b60008060008573ffffffffffffffffffffffffffffffffffffffff1673ffffffffffffffffffffffffffffffffffffffff16815260200190815260200160002054905081811015610ca5576040517f08c379a0000000000000000000000000000000000000000000000000000000008152600401610c9c90611270565b60405180910390fd5b8181036000808673ffffffffffffffffffffffffffffffffffffffff1673ffffffffffffffffffffffffffffffffffffffff16815260200190815260200160002081905550816000808573ffffffffffffffffffffffffffffffffffffffff1673ffffffffffffffffffffffffffffffffffffffff1681526020019081526020016000206000828254610d389190611398565b925050819055508273ffffffffffffffffffffffffffffffffffffffff168473ffffffffffffffffffffffffffffffffffffffff167fddf252ad1be2c89b69c2b068fc378daa952ba7f163c4a11628f55a4df523b3ef84604051610d9c91906112f0565b60405180910390a3610daf848484610dba565b50505050565b505050565b505050565b828054610dcb90611485565b90600052602060002090601f016020900481019282610ded5760008555610e34565b82601f10610e0657805160ff1916838001178555610e34565b82800160010185558215610e34579182015b82811115610e33578251825591602001919060010190610e18565b5b509050610e419190610e45565b5090565b5b80821115610e5e576000816000905550600101610e46565b5090565b6000610e75610e708461134b565b611326565b905082815260208101848484011115610e8d57600080fd5b610e98848285611443565b509392505050565b600081359050610eaf81611789565b92915050565b600082601f830112610ec657600080fd5b8135610ed6848260208601610e62565b91505092915050565b600081359050610eee816117a0565b92915050565b600060208284031215610f0657600080fd5b6000610f1484828501610ea0565b91505092915050565b60008060408385031215610f3057600080fd5b6000610f3e85828601610ea0565b9250506020610f4f85828601610ea0565b9150509250929050565b600080600060608486031215610f6e57600080fd5b6000610f7c86828701610ea0565b9350506020610f8d86828701610ea0565b9250506040610f9e86828701610edf565b9150509250925092565b60008060408385031215610fbb57600080fd5b6000610fc985828601610ea0565b9250506020610fda85828601610edf565b9150509250929050565b600060208284031215610ff657600080fd5b600082013567ffffffffffffffff81111561101057600080fd5b61101c84828501610eb5565b91505092915050565b60006020828403121561103757600080fd5b600061104584828501610edf565b91505092915050565b611057816113ee565b82525050565b61106681611400565b82525050565b60006110778261137c565b6110818185611387565b9350611091818560208601611452565b61109a81611575565b840191505092915050565b60006110b2602383611387565b91506110bd82611586565b604082019050919050565b60006110d5602283611387565b91506110e0826115d5565b604082019050919050565b60006110f8601d83611387565b915061110382611624565b602082019050919050565b600061111b602683611387565b91506111268261164d565b604082019050919050565b600061113e602583611387565b91506111498261169c565b604082019050919050565b6000611161602483611387565b915061116c826116eb565b604082019050919050565b6000611184602583611387565b915061118f8261173a565b604082019050919050565b6111a38161142c565b82525050565b6111b281611436565b82525050565b60006020820190506111cd600083018461104e565b92915050565b60006020820190506111e8600083018461105d565b92915050565b60006020820190508181036000830152611208818461106c565b905092915050565b60006020820190508181036000830152611229816110a5565b9050919050565b60006020820190508181036000830152611249816110c8565b9050919050565b60006020820190508181036000830152611269816110eb565b9050919050565b600060208201905081810360008301526112898161110e565b9050919050565b600060208201905081810360008301526112a981611131565b9050919050565b600060208201905081810360008301526112c981611154565b9050919050565b600060208201905081810360008301526112e981611177565b9050919050565b6000602082019050611305600083018461119a565b92915050565b600060208201905061132060008301846111a9565b92915050565b6000611330611341565b905061133c82826114b7565b919050565b6000604051905090565b600067ffffffffffffffff82111561136657611365611546565b5b61136f82611575565b9050602081019050919050565b600081519050919050565b600082825260208201905092915050565b60006113a38261142c565b91506113ae8361142c565b9250827fffffffffffffffffffffffffffffffffffffffffffffffffffffffffffffffff038211156113e3576113e26114e8565b5b828201905092915050565b60006113f98261140c565b9050919050565b60008115159050919050565b600073ffffffffffffffffffffffffffffffffffffffff82169050919050565b6000819050919050565b600060ff82169050919050565b82818337600083830152505050565b60005b83811015611470578082015181840152602081019050611455565b8381111561147f576000848401525b50505050565b6000600282049050600182168061149d57607f821691505b602082108114156114b1576114b0611517565b5b50919050565b6114c082611575565b810181811067ffffffffffffffff821117156114df576114de611546565b5b80604052505050565b7f4e487b7100000000000000000000000000000000000000000000000000000000600052601160045260246000fd5b7f4e487b7100000000000000000000000000000000000000000000000000000000600052602260045260246000fd5b7f4e487b7100000000000000000000000000000000000000000000000000000000600052604160045260246000fd5b6000601f19601f8301169050919050565b7f45524332303a207472616e7366657220746f20746865207a65726f206164647260008201527f6573730000000000000000000000000000000000000000000000000000000000602082015250565b7f45524332303a20617070726f766520746f20746865207a65726f20616464726560008201527f7373000000000000000000000000000000000000000000000000000000000000602082015250565b7f45524332303a20696e73756666696369656e7420616c6c6f77616e6365000000600082015250565b7f45524332303a207472616e7366657220616d6f756e742065786365656473206260008201527f616c616e63650000000000000000000000000000000000000000000000000000602082015250565b7f45524332303a207472616e736665722066726f6d20746865207a65726f20616460008201527f6472657373000000000000000000000000000000000000000000000000000000602082015250565b7f45524332303a20617070726f76652066726f6d20746865207a65726f2061646460008201527f7265737300000000000000000000000000000000000000000000000000000000602082015250565b7f45524332303a2064656372656173656420616c6c6f77616e63652062656c6f7760008201527f207a65726f000000000000000000000000000000000000000000000000000000602082015250565b611792816113ee565b811461179d57600080fd5b50565b6117a98161142c565b81146117b457600080fd5b5056fea264697066735822122004a9b4f2efe6a6540968f625a8f33d82b8df94c367ef60a375bd72c0dd2f319264736f6c63430008040033",
  "linkReferences": {},
  "deployedLinkReferences": {}
}