{
  "_format": "hh-sol-artifact-1",
  "contractName": "Limsanity",
  "sourceName": "contracts/Limsanity.sol",
  "abi": [
    {
      "inputs": [
        {
          "internalType": "address",
          "name": "tokenAddress",
          "type": "address"
        }
      ],
      "stateMutability": "nonpayable",
      "type": "constructor"
    },
    {
      "inputs": [
        {
          "internalType": "uint256",
          "name": "amount",
          "type": "uint256"
        }
      ],
      "name": "claim",
      "outputs": [],
      "stateMutability": "nonpayable",
      "type": "function"
    },
    {
      "inputs": [
        {
          "internalType": "address",
          "name": "",
          "type": "address"
        }
      ],
      "name": "highScore",
      "outputs": [
        {
          "internalType": "uint256",
          "name": "",
          "type": "uint256"
        }
      ],
      "stateMutability": "view",
      "type": "function"
    }
  ],
  "bytecode": "0x608060405234801561001057600080fd5b506040516104c93803806104c98339818101604052810190610032919061008d565b806000806101000a81548173ffffffffffffffffffffffffffffffffffffffff021916908373ffffffffffffffffffffffffffffffffffffffff160217905550506100ff565b600081519050610087816100e8565b92915050565b60006020828403121561009f57600080fd5b60006100ad84828501610078565b91505092915050565b60006100c1826100c8565b9050919050565b600073ffffffffffffffffffffffffffffffffffffffff82169050919050565b6100f1816100b6565b81146100fc57600080fd5b50565b6103bb8061010e6000396000f3fe608060405234801561001057600080fd5b50600436106100365760003560e01c8063379607f51461003b578063ba5bf0e714610057575b600080fd5b6100556004803603810190610050919061026d565b610087565b005b610071600480360381019061006c919061021b565b6101c4565b60405161007e91906102dd565b60405180910390f35b60008054906101000a900473ffffffffffffffffffffffffffffffffffffffff1673ffffffffffffffffffffffffffffffffffffffff1663a9059cbb33836040518363ffffffff1660e01b81526004016100e29291906102b4565b602060405180830381600087803b1580156100fc57600080fd5b505af1158015610110573d6000803e3d6000fd5b505050506040513d601f19601f820116820180604052508101906101349190610244565b50600160003373ffffffffffffffffffffffffffffffffffffffff1673ffffffffffffffffffffffffffffffffffffffff168152602001908152602001600020548111156101c15780600160003373ffffffffffffffffffffffffffffffffffffffff1673ffffffffffffffffffffffffffffffffffffffff168152602001908152602001600020819055505b50565b60016020528060005260406000206000915090505481565b6000813590506101eb81610340565b92915050565b60008151905061020081610357565b92915050565b6000813590506102158161036e565b92915050565b60006020828403121561022d57600080fd5b600061023b848285016101dc565b91505092915050565b60006020828403121561025657600080fd5b6000610264848285016101f1565b91505092915050565b60006020828403121561027f57600080fd5b600061028d84828501610206565b91505092915050565b61029f816102f8565b82525050565b6102ae81610336565b82525050565b60006040820190506102c96000830185610296565b6102d660208301846102a5565b9392505050565b60006020820190506102f260008301846102a5565b92915050565b600061030382610316565b9050919050565b60008115159050919050565b600073ffffffffffffffffffffffffffffffffffffffff82169050919050565b6000819050919050565b610349816102f8565b811461035457600080fd5b50565b6103608161030a565b811461036b57600080fd5b50565b61037781610336565b811461038257600080fd5b5056fea2646970667358221220d12a882681b984fbd0db991ac31cb29c8ade7f559f5065dde1b427b783409f6864736f6c63430008040033",
  "linkReferences": {},
  "deployedLinkReferences": {}
}